{
  "_format": "hh-sol-artifact-1",
  "contractName": "CredentialRegistry",
  "sourceName": "contracts/CredentialRegistry.sol",
  "abi": [
    {
      "anonymous": false,
      "inputs": [
        {
          "indexed": false,
          "internalType": "string",
          "name": "hash",
          "type": "string"
        },
        {
          "indexed": false,
          "internalType": "address",
          "name": "issuer",
          "type": "address"
        },
        {
          "indexed": false,
          "internalType": "uint256",
          "name": "timestamp",
          "type": "uint256"
        }
      ],
      "name": "CredentialRegistered",
      "type": "event"
    },
    {
      "inputs": [
        {
          "internalType": "string",
          "name": "_hash",
          "type": "string"
        }
      ],
      "name": "registerCredential",
      "outputs": [],
      "stateMutability": "nonpayable",
      "type": "function"
    },
    {
      "inputs": [
        {
          "internalType": "string",
          "name": "_hash",
          "type": "string"
        }
      ],
      "name": "verifyCredential",
      "outputs": [
        {
          "internalType": "bool",
          "name": "",
          "type": "bool"
        },
        {
          "internalType": "uint256",
          "name": "",
          "type": "uint256"
        },
        {
          "internalType": "address",
          "name": "",
          "type": "address"
        }
      ],
      "stateMutability": "view",
      "type": "function"
    }
  ],
  "bytecode": "0x6080604052348015600f57600080fd5b50610a2a8061001f6000396000f3fe608060405234801561001057600080fd5b50600436106100365760003560e01c80637e6712591461003b578063bb3670ab14610057575b600080fd5b610055600480360381019061005091906104a5565b610089565b005b610071600480360381019061006c91906104a5565b6101ef565b60405161008093929190610563565b60405180910390f35b6000808260405161009a919061060b565b908152602001604051809103902060000180546100b690610651565b9050146100f8576040517f08c379a00000000000000000000000000000000000000000000000000000000081526004016100ef906106df565b60405180910390fd5b60405180606001604052808281526020014281526020013373ffffffffffffffffffffffffffffffffffffffff16815250600082604051610139919061060b565b9081526020016040518091039020600082015181600001908161015c91906108ab565b506020820151816001015560408201518160020160006101000a81548173ffffffffffffffffffffffffffffffffffffffff021916908373ffffffffffffffffffffffffffffffffffffffff1602179055509050507f10ea04f90964d6096101e9e4d6574eeb9a1dd17e118a88daa46e752130d3939c8133426040516101e4939291906109b6565b60405180910390a150565b600080600080600085604051610205919061060b565b908152602001604051809103902060405180606001604052908160008201805461022e90610651565b80601f016020809104026020016040519081016040528092919081815260200182805461025a90610651565b80156102a75780601f1061027c576101008083540402835291602001916102a7565b820191906000526020600020905b81548152906001019060200180831161028a57829003601f168201915b50505050508152602001600182015481526020016002820160009054906101000a900473ffffffffffffffffffffffffffffffffffffffff1673ffffffffffffffffffffffffffffffffffffffff1673ffffffffffffffffffffffffffffffffffffffff1681525050905060008160000151510361033057600080600093509350935050610344565b600181602001518260400151935093509350505b9193909250565b6000604051905090565b600080fd5b600080fd5b600080fd5b600080fd5b6000601f19601f8301169050919050565b7f4e487b7100000000000000000000000000000000000000000000000000000000600052604160045260246000fd5b6103b282610369565b810181811067ffffffffffffffff821117156103d1576103d061037a565b5b80604052505050565b60006103e461034b565b90506103f082826103a9565b919050565b600067ffffffffffffffff8211156104105761040f61037a565b5b61041982610369565b9050602081019050919050565b82818337600083830152505050565b6000610448610443846103f5565b6103da565b90508281526020810184848401111561046457610463610364565b5b61046f848285610426565b509392505050565b600082601f83011261048c5761048b61035f565b5b813561049c848260208601610435565b91505092915050565b6000602082840312156104bb576104ba610355565b5b600082013567ffffffffffffffff8111156104d9576104d861035a565b5b6104e584828501610477565b91505092915050565b60008115159050919050565b610503816104ee565b82525050565b6000819050919050565b61051c81610509565b82525050565b600073ffffffffffffffffffffffffffffffffffffffff82169050919050565b600061054d82610522565b9050919050565b61055d81610542565b82525050565b600060608201905061057860008301866104fa565b6105856020830185610513565b6105926040830184610554565b949350505050565b600081519050919050565b600081905092915050565b60005b838110156105ce5780820151818401526020810190506105b3565b60008484015250505050565b60006105e58261059a565b6105ef81856105a5565b93506105ff8185602086016105b0565b80840191505092915050565b600061061782846105da565b915081905092915050565b7f4e487b7100000000000000000000000000000000000000000000000000000000600052602260045260246000fd5b6000600282049050600182168061066957607f821691505b60208210810361067c5761067b610622565b5b50919050565b600082825260208201905092915050565b7f43726564656e7469616c20616c72656164792065786973747300000000000000600082015250565b60006106c9601983610682565b91506106d482610693565b602082019050919050565b600060208201905081810360008301526106f8816106bc565b9050919050565b60008190508160005260206000209050919050565b60006020601f8301049050919050565b600082821b905092915050565b6000600883026107617fffffffffffffffffffffffffffffffffffffffffffffffffffffffffffffffff82610724565b61076b8683610724565b95508019841693508086168417925050509392505050565b6000819050919050565b60006107a86107a361079e84610509565b610783565b610509565b9050919050565b6000819050919050565b6107c28361078d565b6107d66107ce826107af565b848454610731565b825550505050565b600090565b6107eb6107de565b6107f68184846107b9565b505050565b5b8181101561081a5761080f6000826107e3565b6001810190506107fc565b5050565b601f82111561085f57610830816106ff565b61083984610714565b81016020851015610848578190505b61085c61085485610714565b8301826107fb565b50505b505050565b600082821c905092915050565b600061088260001984600802610864565b1980831691505092915050565b600061089b8383610871565b9150826002028217905092915050565b6108b48261059a565b67ffffffffffffffff8111156108cd576108cc61037a565b5b6108d78254610651565b6108e282828561081e565b600060209050601f8311600181146109155760008415610903578287015190505b61090d858261088f565b865550610975565b601f198416610923866106ff565b60005b8281101561094b57848901518255600182019150602085019450602081019050610926565b868310156109685784890151610964601f891682610871565b8355505b6001600288020188555050505b505050505050565b60006109888261059a565b6109928185610682565b93506109a28185602086016105b0565b6109ab81610369565b840191505092915050565b600060608201905081810360008301526109d0818661097d565b90506109df6020830185610554565b6109ec6040830184610513565b94935050505056fea2646970667358221220d1759a4fbbc51ffe9803c71258206bbedb3410e69b60f92ddb812e1f3081e54964736f6c634300081c0033",
  "linkReferences": {},
  "deployedLinkReferences": {}
}